:02000004080AE8
:1000000000000A08A40F0A08000005000600050108
:080010000402CF000000000013
:100018005C0D0A0809480A4908B5884205D0094A0A
:10002800824202D0121A00F079FE0748074A0021DE
:10003800121A00F07EFE064808BD00BF000300202B
:10004800740F0A0808030020080300208008002015
:100058008008002070B500F039FC074B074C1E469D
:10006800E41AA4080025A54204D056F8253098477C
:100078000135F8E770BD00BF380F0A08680F0A0895
:1000880000F012B808B500F017F8BDE8084000F015
:10009800DBBB00F043B90078B0FA80F04009704744
:1000A8000123037070470000024B0121188800F0FB
:1000B80055BC00BF0003002010B5094C0121208861
:1000C80000F05DFC4FF47A7000F030F920880021D0
:1000D80000F055FCBDE810404FF47A7000F026B9E6
:1000E8000003002000F018B808B5024B1B681B6B12
:1000F800019308BDD001060808B5024B1B685B6870
:10010800019308BD9C01060808B5024B1B685B6992
:10011800019308BD9C01060808B5024B1B681B68C3
:10012800019308BDB001060808B5024B1B689B681F
:10013800019308BDB001060808B5024B1B68DB68CF
:10014800019308BDB001060808B5024B1B681B697E
:10015800019308BDB001060808B5024B1B681B6E69
:10016800019308BDAC01060808B5024B1B685B6E1D
:10017800019308BDAC01060808B5024B1B689B6ECD
:10018800019308BDAC01060808B5024B1B68DB6E7D
:10019800019308BDAC01060808B5024B1B681B6F2C
:1001A800019308BDAC01060808B5024B1B685B6FDC
:1001B800019308BDAC01060808B5034B1B68D3F8CA
:1001C8008030019308BD0000AC01060808B5024B59
:1001D8001B68DB69019308BDB401060808B5024B2A
:1001E8001B681B6A019308BDB401060808B5024BD9
:1001F8001B689B69019308BDC401060808B5024B3A
:100208001B685B6A019308BDC401060808B5024B68
:100218001B689B6A019308BDC401060808B5024B18
:100228001B68DB6A019308BDC401060808B5024BC8
:100238001B681B6B019308BDC401060808B5024B77
:100248001B685B6B019308BDC401060808B5024B27
:100258001B689B6B019308BDC401060808B5024BD7
:100268001B681B6C019308BDC401060808B5024B46
:100278001B681B68019308BDD801060808B5024B26
:100288001B681B69019308BDD801060808B5024B15
:100298001B685B69019308BDD801060808B5024BC5
:1002A8001B689B69019308BDD801060808B5024B75
:1002B8001B68DB69019308BDD801060808B5024B25
:1002C8001B681B6A019308BDD801060808B5024BD4
:1002D8001B685B68019308BDA401060808B5024BBA
:1002E8001B685B69019308BDA401060808B5024BA9
:1002F8001B685B6E019308BDA401060808B5024B94
:100308001B689B6E019308BDA401060808B5024B43
:100318001B681B69019308BDC801060808B5024B94
:100328001B685B68019308BDA00106080021FFF760
:10033800D5BF10B58368044613B103220146984718
:10034800204610BD7047F8B5064615460C468F186E
:10035800BC4206D0336814F8011B9B6830469847A6
:10036800F6E72846F8BD0022007CFFF7F5BE00211D
:10037800007CFFF7F9BE0021007CFFF7FDBE0021DD
:10038800007CFFF701BF0021007CFFF705BF10B517
:100398000446FFF77EFE204610BD000010B5044657
:1003A80008464FF47A73A360044B002120746160FF
:1003B8002360FFF701FF204610BD00BF780D0A0833
:1003C8000021007CFFF7F0BE704710B50446FFF728
:1003D80060FE204610BDF8B50F4600F10806051D61
:1003E800002416F8011D0A22384600F082F8AE42B1
:1003F800044407D0002CF4D02E21384600F04CF8E5
:100408000444EEE72046F8BD10B59DF8084044EADC
:10041800032343EA024242EA01610423416003756F
:1004280010BD000037B5044D05609DF818500095C3
:10043800FFF7EAFF03B030BDA00D0A08014A024BDE
:100448001A607047670E0A080C030020F8B50646C4
:100458000D468F180024BD420CD0336815F8011BD7
:100468009B6830469847002801DB0444F3E7002CDA
:1004780008BF04462046F8BD70B505460C46084638
:1004880049B100F05EFC2B68024621462846BDE8CB
:100498007040DB68184770BD03689B681847012ADD
:1004A80098BF0A2230B50B468BB000218DF8241076
:1004B8000DF12304B3FBF2F505FB1233DBB2092B74
:1004C80094BF30333733DBB2214604F801392B4669
:1004D800002DEFD1FFF7D0FF0BB030BD10B422B91B
:1004E8000368C9B29B6810BC1847D2B210BCFFF7AA
:1004F800D6BFFFF7F3BF10B50446FFF71AFF204633
:1005080010BD0000034800238360034A034900F03C
:10051800A9BA00BF1003002008030020FF040A083E
:10052800704710B50446FFF7B4FD204610BD000023
:1005380070B504460E46074B0025036040F80C5F73
:10054800FFF7D2FD30462671FFF740FEA560204632
:1005580070BD00BF980E0A080079FFF73FBE002063
:10056800FFF7B4BE024B1A68024B1A60704700BF0F
:100578000403002020030020704741747047007C6A
:10058800FFF76CBE007CFFF741BE007CFFF74EBE54
:10059800007CFFF743BE007CFFF750BE10B5044651
:1005A800FFF777FD204610BD70B5457C04460E4622
:1005B80025B9007CFFF752FE002805DD3146207C76
:1005C800BDE87040FFF71ABE284670BD10B5044656
:1005D80008461146002262604FF47A72A260054A0A
:1005E80020742260012262741A46FFF7FFFD20463C
:1005F80010BD00BFD40E0A08007CFFF727BE00001C
:1006080038B50C4D296811F0010411D12846FFF7BF
:1006180042FD68B1084A2146084B0948FFF7D6FF52
:100628002846FFF73DFD074A0749054800F01AFA32
:10063800034838BDBC030020C00300203803002055
:10064800240300200803002081050A08417470472C
:1006580070470021007CFFF721BE0121007CFFF7D5
:100668001DBE007CFFF712BE007CFFF707BE38B541
:100678000446007C0D46FFF709FE002801DC607C7B
:1006880020B12946207CFFF711FE012038BD007CEF
:10069800FFF714BE10B50446FFF7FBFC204610BD5B
:1006A80010B50446002363604FF47A73A360054BCA
:1006B800084623600123217463741146FFF7D6FDB1
:1006C800204610BD040F0A0810B504461422002164
:1006D80000F02FFB054B20466360054BE36040F2BA
:1006E800011323818123238210BD00BFC904002088
:1006F8004804002030B50E4D87B001A8FFF7E4FF8D
:10070800296811F0010410D12846FFF7C4FC60B134
:1007180001AA21460748FFF7C3FF2846FFF7C0FC98
:10072800054A0649034800F09DF9024807B030BD64
:1007380044040020CC0500200803002059060A08BC
:1007480010B504461422002100F0F3FA054B2046A8
:100758006360054BE36040F2011323818123238208
:1007680010BD00BF7C060020E405002010B50E4C2B
:1007780086B001A8FFF7E4FF2368DB0710D4204602
:10078800FFF789FC60B101AA01210848FFF788FF3B
:100798002046FFF785FC064A0649044800F062F93E
:1007A800024806B010BD00BFE00500206806002022
:1007B8000803002059060A0870470022114610460F
:1007C800FFF7A4BD0348044B044A0549036000F041
:1007D80049B900BF80070020340F0A080803002029
:1007E800C1070A0808B5144B33B1FFF783FF036844
:1007F8001B699847002816DC104B33B1FFF700FF40
:1008080003681B699847002810DC0D4B0BB1AFF348
:1008180000800C4B7BB1FFF7A9FF03681B69984761
:10082800002806DC08BDAFF30080E5E7AFF30080E1
:10083800EBE7AFF3008008BD0000000000000000F7
:10084800000000000000000008B5FFF7CBFFFFF72D
:100858005BFC014B186008BD8C0700200248034A66
:100868000349121A00F05ABA0040024004400240FC
:10087800700F0A080020704737B5436804460A2BF2
:100888000ED0502B1CD1104B1D68CDB1037D4FF4F9
:1008980000710093C26800F110038068A84707E060
:1008A80000F11003C2684FF400718068FFF7E2FF9F
:1008B80030B1002220461146FFF720FD012000E05C
:1008C800002003B030BD00BF8407002038B50C4CB1
:1008D8000C4D2368AB420C4B0CBF012200221A704E
:1008E80002D0FFF7BBFF2560084B1BB1FFF704FCE4
:1008F800AFF30080BDE8384000210548FFF7F6BC9B
:10090800004002401E1C279A8807002000000000B3
:1009180081080A0810B504460F48FFF71DFE28B1E4
:10092800A4F10D03022B01D8002010BD00F040F8FF
:10093800FFF746FD08B1012CF6D9FFF761FEFFF776
:100948005BFE18B1A4F11203012BEDD9172C8CBF53
:100958000020012010BD00BFC0070020172838B5AF
:1009680004460D460AD8FF2908D0FFF7D3FF28B15F
:1009780029462046BDE83840FFF7D6BB38BD38B514
:1009880004460D46FFF7D8FBFF2810D0062804D8E8
:100998004D2323FA00F0C30709D42046FFF7BAFF16
:1009A80028B129462046BDE83840FFF7CDBB38BD01
:1009B80038B50B4D296811F001040FD12846FFF70F
:1009C8006AFB58B121460748FFF7E8FC2846FFF7BD
:1009D80067FB054A0549034800F044F8014838BD5B
:1009E8009007002094070020080300204D030A0800
:1009F80013B5084C00231A46194600932046FFF702
:100A080011FD2046044A054902B0BDE8104000F037
:100A180029B800BFA807002008030020D1030A084E
:100A280070B50C4C0C4E0D4D00212046FFF780FD93
:100A380020460B4C3246294600F014F80121204686
:100A4800FFF776FD324629462046BDE8704000F0A3
:100A580009B800BFC00700200803002029050A08BC
:100A6800D00700200B460146184600F049B900009F
:100A7800244B1A68D0075CBF01221A60224B1A68FF
:100A8800D1075CBF01221A60204B1A68D2075CBFED
:100A980001221A601E4B1A68D0075CBF01221A6037
:100AA8001C4B1A68D1075CBF01221A601A4B1A68DE
:100AB800D2075CBF01221A60184B1A68D0075CBFC6
:100AC80001221A60164B1A68D1075CBF01221A600E
:100AD800144B1A68D2075CBF01221A60124B1A68BD
:100AE800D0075CBF01221A60104B1A68D1075CBF9F
:100AF80001221A600E4B1A68D2075CBF01221A60E5
:100B0800704700BF0C0800200808002004080020D7
:100B180000080020FC070020F8070020F407002048
:100B2800F0070020EC070020E8070020E407002079
:100B3800E0070020184B1A68D1075CBF01221A6031
:100B4800164B1A68D2075CBF01221A60144B1A6848
:100B5800D0075CBF01221A60124B1A68D1075CBF2C
:100B680001221A60104B1A68D2075CBF01221A6072
:100B78000E4B1A68D0075CBF01221A600C4B1A682A
:100B8800D1075CBF01221A600A4B1A68D2075CBF02
:100B980001221A60704700BF2C0800202808002096
:100BA80024080020200800201C0800201808002025
:100BB8001408002010080020184B1A68D1075CBFE1
:100BC80001221A60164B1A68D2075CBF01221A600C
:100BD800144B1A68D0075CBF01221A60124B1A68BE
:100BE800D1075CBF01221A60104B1A68D2075CBF9C
:100BF80001221A600E4B1A68D0075CBF01221A60E6
:100C08000C4B1A68D1075CBF01221A600A4B1A689C
:100C1800D2075CBF01221A60704700BF4C08002051
:100C28004808002044080020400800203C08002014
:100C3800380800203408002030080020244B1A68A7
:100C4800D0075CBF01221A60224B1A68D1075CBF2B
:100C580001221A60204B1A68D2075CBF01221A6071
:100C68001E4B1A68D0075CBF01221A601C4B1A6819
:100C7800D1075CBF01221A601A4B1A68D2075CBF01
:100C880001221A60184B1A68D0075CBF01221A604B
:100C9800164B1A68D1075CBF01221A60144B1A68F8
:100CA800D2075CBF01221A60124B1A68D0075CBFDA
:100CB80001221A60104B1A68D1075CBF01221A6022
:100CC8000E4B1A68D2075CBF01221A60704700BF3A
:100CD8007C08002078080020740800207008002094
:100CE8006C080020680800206408002060080020C4
:100CF8005C080020580800205408002050080020F4
:100D080010B5054C13462CB10A4601460220AFF334
:100D1800008010BD204610BD0000000010B5431E25
:100D28000A44914204D011F8014B03F8014FF8E747
:100D380010BD03460244934202D003F8011BFAE7B0
:100D48007047034613F8012B002AFBD1181A013803
:100D5800704700001D000A085D000A0889000A089B
:100D68008D000A08000000000000000000000000DC
:100D78004D030A0897030A086F030A084F030A0875
:100D880077030A087F030A0887030A088F030A08FB
:100D98000000000000000000DF030A08D1030A0871
:100DA800D3030A0866006C6E00666E00636F6465A4
:100DB8000064657461696C000D0A00253031307576
:100DC80020005D20002564002C200028293A2000FE
:100DD800205B00636F6465203D2000256900646521
:100DE8007461696C73203D2000626175640053650D
:100DF8007269616C0055534253657269616C3100C8
:100E08007479706500706172616D00636D6400696A
:100E18006400686E64007374726D0066696C7400B7
:100E28006C766C0061646448616E646C6572007213
:100E3800656D6F766548616E646C657200656E7588
:100E48006D48616E646C657273004A534F4E5374FB
:100E58007265616D4C6F6748616E646C65720061A4
:100E68007070006E6F6E6500747261636500696E04
:100E7800666F007761726E006572726F72007061E2
:100E88006E696300616C6C000000000000000000E7
:100E980029050A082B050A085A00252B3033643A1D
:100EA800253032750025592D256D2D25645425488A
:100EB8003A254D3A2553257A0061736374696D6547
:100EC80000000000000000000000000081050A0882
:100ED800A5050A08B1050A0855040A088D050A0877
:100EE80099050A0893050A089F050A0883050A0850
:100EF80087050A08000000000000000059060A08DB
:100F08009D060A0877060A0855040A0871060A08A1
:100F18005B060A0863060A0897060A086B060A08A9
:100F280055060A080000000000000000C3070A0870
:100F3800ED000A0845040A080D050A0867050A08AD
:100F48006D050A08CD070A08F9090A08290A0A08D6
:100F5800790A0A083D0B0A08C10B0A08450C0A0859
:080F6800000000000000000081
:040F7000000000007D
:080F740006000000C10E0A088E
:100F7C00FFFFFFFF00000102030405060708090A32
:100F8C000B0C0D0E0F101112131415161718191A2D
:080F9C001B1C1D1E1F20280074
:040FA4007856341235
:04000005080A0018CD
:00000001FF
